{
  "contractName": "DataVault",
  "abi": [
    {
      "inputs": [
        {
          "internalType": "string",
          "name": "_version",
          "type": "string"
        }
      ],
      "stateMutability": "nonpayable",
      "type": "constructor"
    },
    {
      "anonymous": false,
      "inputs": [
        {
          "indexed": false,
          "internalType": "string",
          "name": "key",
          "type": "string"
        },
        {
          "indexed": false,
          "internalType": "string",
          "name": "value",
          "type": "string"
        }
      ],
      "name": "ValueSet",
      "type": "event"
    },
    {
      "inputs": [],
      "name": "owner",
      "outputs": [
        {
          "internalType": "address",
          "name": "",
          "type": "address"
        }
      ],
      "stateMutability": "view",
      "type": "function",
      "constant": true
    },
    {
      "inputs": [],
      "name": "version",
      "outputs": [
        {
          "internalType": "string",
          "name": "",
          "type": "string"
        }
      ],
      "stateMutability": "view",
      "type": "function",
      "constant": true
    },
    {
      "inputs": [
        {
          "internalType": "string",
          "name": "key",
          "type": "string"
        },
        {
          "internalType": "string",
          "name": "value",
          "type": "string"
        }
      ],
      "name": "setValue",
      "outputs": [],
      "stateMutability": "nonpayable",
      "type": "function"
    },
    {
      "inputs": [
        {
          "internalType": "string",
          "name": "key",
          "type": "string"
        }
      ],
      "name": "getValue",
      "outputs": [
        {
          "internalType": "string",
          "name": "",
          "type": "string"
        }
      ],
      "stateMutability": "view",
      "type": "function",
      "constant": true
    },
    {
      "inputs": [
        {
          "internalType": "address",
          "name": "newOwner",
          "type": "address"
        }
      ],
      "name": "changeOwner",
      "outputs": [],
      "stateMutability": "nonpayable",
      "type": "function"
    },
    {
      "inputs": [
        {
          "internalType": "string",
          "name": "_version",
          "type": "string"
        }
      ],
      "name": "updateVersion",
      "outputs": [],
      "stateMutability": "nonpayable",
      "type": "function"
    }
  ],
  "bytecode": "0x60806040523480156200001157600080fd5b5060405162000e1d38038062000e1d8339818101604052810190620000379190620001ba565b33600160006101000a81548173ffffffffffffffffffffffffffffffffffffffff021916908373ffffffffffffffffffffffffffffffffffffffff16021790555080600290805190602001906200009092919062000098565b505062000330565b828054620000a6906200029c565b90600052602060002090601f016020900481019282620000ca576000855562000116565b82601f10620000e557805160ff191683800117855562000116565b8280016001018555821562000116579182015b8281111562000115578251825591602001919060010190620000f8565b5b50905062000125919062000129565b5090565b5b80821115620001445760008160009055506001016200012a565b5090565b60006200015f620001598462000233565b620001ff565b9050828152602081018484840111156200017857600080fd5b6200018584828562000266565b509392505050565b600082601f8301126200019f57600080fd5b8151620001b184826020860162000148565b91505092915050565b600060208284031215620001cd57600080fd5b600082015167ffffffffffffffff811115620001e857600080fd5b620001f6848285016200018d565b91505092915050565b6000604051905081810181811067ffffffffffffffff8211171562000229576200022862000301565b5b8060405250919050565b600067ffffffffffffffff82111562000251576200025062000301565b5b601f19601f8301169050602081019050919050565b60005b838110156200028657808201518184015260208101905062000269565b8381111562000296576000848401525b50505050565b60006002820490506001821680620002b557607f821691505b60208210811415620002cc57620002cb620002d2565b5b50919050565b7f4e487b7100000000000000000000000000000000000000000000000000000000600052602260045260246000fd5b7f4e487b7100000000000000000000000000000000000000000000000000000000600052604160045260246000fd5b610add80620003406000396000f3fe608060405234801561001057600080fd5b50600436106100625760003560e01c806354fd4d50146100675780637240f9af146100855780638da5cb5b146100a1578063960384a0146100bf578063a6f9dae1146100ef578063ec86cfad1461010b575b600080fd5b61006f610127565b60405161007c919061087a565b60405180910390f35b61009f600480360381019061009a91906106e2565b6101b5565b005b6100a961025f565b6040516100b6919061085f565b60405180910390f35b6100d960048036038101906100d491906106e2565b610285565b6040516100e6919061087a565b60405180910390f35b610109600480360381019061010491906106b9565b6103c5565b005b61012560048036038101906101209190610723565b610499565b005b60028054610134906109ef565b80601f0160208091040260200160405190810160405280929190818152602001828054610160906109ef565b80156101ad5780601f10610182576101008083540402835291602001916101ad565b820191906000526020600020905b81548152906001019060200180831161019057829003601f168201915b505050505081565b600160009054906101000a900473ffffffffffffffffffffffffffffffffffffffff1673ffffffffffffffffffffffffffffffffffffffff163373ffffffffffffffffffffffffffffffffffffffff1614610245576040517f08c379a000000000000000000000000000000000000000000000000000000000815260040161023c906108d3565b60405180910390fd5b806002908051906020019061025b929190610599565b5050565b600160009054906101000a900473ffffffffffffffffffffffffffffffffffffffff1681565b6060600160009054906101000a900473ffffffffffffffffffffffffffffffffffffffff1673ffffffffffffffffffffffffffffffffffffffff163373ffffffffffffffffffffffffffffffffffffffff1614610317576040517f08c379a000000000000000000000000000000000000000000000000000000000815260040161030e906108d3565b60405180910390fd5b6000826040516103279190610848565b90815260200160405180910390208054610340906109ef565b80601f016020809104026020016040519081016040528092919081815260200182805461036c906109ef565b80156103b95780601f1061038e576101008083540402835291602001916103b9565b820191906000526020600020905b81548152906001019060200180831161039c57829003601f168201915b50505050509050919050565b600160009054906101000a900473ffffffffffffffffffffffffffffffffffffffff1673ffffffffffffffffffffffffffffffffffffffff163373ffffffffffffffffffffffffffffffffffffffff1614610455576040517f08c379a000000000000000000000000000000000000000000000000000000000815260040161044c906108d3565b60405180910390fd5b80600160006101000a81548173ffffffffffffffffffffffffffffffffffffffff021916908373ffffffffffffffffffffffffffffffffffffffff16021790555050565b600160009054906101000a900473ffffffffffffffffffffffffffffffffffffffff1673ffffffffffffffffffffffffffffffffffffffff163373ffffffffffffffffffffffffffffffffffffffff1614610529576040517f08c379a0000000000000000000000000000000000000000000000000000000008152600401610520906108d3565b60405180910390fd5b8060008360405161053a9190610848565b9081526020016040518091039020908051906020019061055b929190610599565b507fc4df459909ff9875f4edd846ae16975efbc51b1b2930ffe2144f25bd303948f5828260405161058d92919061089c565b60405180910390a15050565b8280546105a5906109ef565b90600052602060002090601f0160209004810192826105c7576000855561060e565b82601f106105e057805160ff191683800117855561060e565b8280016001018555821561060e579182015b8281111561060d5782518255916020019190600101906105f2565b5b50905061061b919061061f565b5090565b5b80821115610638576000816000905550600101610620565b5090565b600061064f61064a84610924565b6108f3565b90508281526020810184848401111561066757600080fd5b6106728482856109ad565b509392505050565b60008135905061068981610a90565b92915050565b600082601f8301126106a057600080fd5b81356106b084826020860161063c565b91505092915050565b6000602082840312156106cb57600080fd5b60006106d98482850161067a565b91505092915050565b6000602082840312156106f457600080fd5b600082013567ffffffffffffffff81111561070e57600080fd5b61071a8482850161068f565b91505092915050565b6000806040838503121561073657600080fd5b600083013567ffffffffffffffff81111561075057600080fd5b61075c8582860161068f565b925050602083013567ffffffffffffffff81111561077957600080fd5b6107858582860161068f565b9150509250929050565b6107988161097b565b82525050565b60006107a982610954565b6107b3818561095f565b93506107c38185602086016109bc565b6107cc81610a7f565b840191505092915050565b60006107e282610954565b6107ec8185610970565b93506107fc8185602086016109bc565b80840191505092915050565b600061081560168361095f565b91507f4e6f742074686520636f6e7472616374206f776e6572000000000000000000006000830152602082019050919050565b600061085482846107d7565b915081905092915050565b6000602082019050610874600083018461078f565b92915050565b60006020820190508181036000830152610894818461079e565b905092915050565b600060408201905081810360008301526108b6818561079e565b905081810360208301526108ca818461079e565b90509392505050565b600060208201905081810360008301526108ec81610808565b9050919050565b6000604051905081810181811067ffffffffffffffff8211171561091a57610919610a50565b5b8060405250919050565b600067ffffffffffffffff82111561093f5761093e610a50565b5b601f19601f8301169050602081019050919050565b600081519050919050565b600082825260208201905092915050565b600081905092915050565b60006109868261098d565b9050919050565b600073ffffffffffffffffffffffffffffffffffffffff82169050919050565b82818337600083830152505050565b60005b838110156109da5780820151818401526020810190506109bf565b838111156109e9576000848401525b50505050565b60006002820490506001821680610a0757607f821691505b60208210811415610a1b57610a1a610a21565b5b50919050565b7f4e487b7100000000000000000000000000000000000000000000000000000000600052602260045260246000fd5b7f4e487b7100000000000000000000000000000000000000000000000000000000600052604160045260246000fd5b6000601f19601f8301169050919050565b610a998161097b565b8114610aa457600080fd5b5056fea26469706673582212205b66f623e62792689e24d673c58dfaf5db6bb37bed51eeb4cde9498282a3bd1164736f6c63430008000033",
  "immutableReferences": {},
  "source": "// SPDX-License-Identifier: MIT\r\n// Compiled with Solidity 0.8.19 (or whatever version you used)\r\npragma solidity ^0.8.0;\r\n\r\ncontract DataVault {\r\n    // State variable to store key-value pairs\r\n    mapping(string => string) private store;\r\n\r\n    // State variable for the contract's owner\r\n    address public owner;\r\n\r\n    // State variable for the contract's version\r\n    string public version;\r\n\r\n    // Event to log when a new key-value pair is set\r\n    event ValueSet(string key, string value);\r\n\r\n    // Modifier to restrict certain operations to the owner\r\n    modifier onlyOwner() {\r\n        require(msg.sender == owner, \"Not the contract owner\");\r\n        _;\r\n    }\r\n\r\n    // Constructor to set the contract's owner and version upon deployment\r\n    constructor(string memory _version) {\r\n        owner = msg.sender;\r\n        version = _version;\r\n    }\r\n\r\n    // Function to set a key-value pair\r\n    function setValue(string memory key, string memory value) public onlyOwner {\r\n        store[key] = value;\r\n        emit ValueSet(key, value);\r\n    }\r\n\r\n    // Function to get the value for a given key\r\n    function getValue(string memory key) public onlyOwner view returns (string memory) {\r\n        return store[key];\r\n    }\r\n\r\n    // Function to change the contract's owner\r\n    function changeOwner(address newOwner) public onlyOwner {\r\n        owner = newOwner;\r\n    }\r\n\r\n    // Function to update the contract's version (optional, based on your needs)\r\n    function updateVersion(string memory _version) public onlyOwner {\r\n        version = _version;\r\n    }\r\n}\r\n",
  "sourcePath": "C:\\Projects\\Hadal-Server\\smart-contracts\\contracts\\DataVault.sol",
  "compiler": {
    "name": "solc",
    "version": "0.8.0+commit.c7dfd78e.Emscripten.clang"
  },
  "schemaVersion": "3.4.15",
  "updatedAt": "2023-08-18T16:44:58.067Z",
  "networkType": "ethereum",
  "devdoc": {
    "kind": "dev",
    "methods": {},
    "version": 1
  },
  "userdoc": {
    "kind": "user",
    "methods": {},
    "version": 1
  }
}